{
  "contractName": "TodoList",
  "abi": [
    {
      "constant": true,
      "inputs": [
        {
          "name": "",
          "type": "uint256"
        }
      ],
      "name": "tasks",
      "outputs": [
        {
          "name": "content",
          "type": "string"
        },
        {
          "name": "completed",
          "type": "bool"
        }
      ],
      "payable": false,
      "stateMutability": "view",
      "type": "function",
      "signature": "0x8d977672"
    },
    {
      "constant": false,
      "inputs": [
        {
          "name": "_content",
          "type": "string"
        }
      ],
      "name": "addTask",
      "outputs": [],
      "payable": false,
      "stateMutability": "nonpayable",
      "type": "function",
      "signature": "0x67238562"
    },
    {
      "constant": false,
      "inputs": [
        {
          "name": "_index",
          "type": "uint256"
        }
      ],
      "name": "completeTask",
      "outputs": [],
      "payable": false,
      "stateMutability": "nonpayable",
      "type": "function",
      "signature": "0xe1e29558"
    },
    {
      "constant": true,
      "inputs": [
        {
          "name": "_index",
          "type": "uint256"
        }
      ],
      "name": "getTask",
      "outputs": [
        {
          "name": "",
          "type": "string"
        },
        {
          "name": "",
          "type": "bool"
        }
      ],
      "payable": false,
      "stateMutability": "view",
      "type": "function",
      "signature": "0x1d65e77e"
    }
  ],
  "bytecode": "0x608060405234801561001057600080fd5b50610532806100206000396000f3fe6080604052600436106100615763ffffffff7c01000000000000000000000000000000000000000000000000000000006000350416631d65e77e811461006657806367238562146101135780638d977672146101c8578063e1e29558146101f2575b600080fd5b34801561007257600080fd5b506100906004803603602081101561008957600080fd5b503561021c565b604051808060200183151515158152602001828103825284818151815260200191508051906020019080838360005b838110156100d75781810151838201526020016100bf565b50505050905090810190601f1680156101045780820380516001836020036101000a031916815260200191505b50935050505060405180910390f35b34801561011f57600080fd5b506101c66004803603602081101561013657600080fd5b81019060208101813564010000000081111561015157600080fd5b82018360208201111561016357600080fd5b8035906020019184600183028401116401000000008311171561018557600080fd5b91908080601f0160208091040260200160405190810160405280939291908181526020018383808284376000920191909152509295506102fd945050505050565b005b3480156101d457600080fd5b50610090600480360360208110156101eb57600080fd5b503561037e565b3480156101fe57600080fd5b506101c66004803603602081101561021557600080fd5b5035610435565b60606000808381548110151561022e57fe5b906000526020600020906002020160000160008481548110151561024e57fe5b600091825260209182902060029182020160019081015484546040805161010094831615949094026000190190911693909304601f810185900485028301850190935282825260ff1692909184918301828280156102ed5780601f106102c2576101008083540402835291602001916102ed565b820191906000526020600020905b8154815290600101906020018083116102d057829003601f168201915b5050505050915091509150915091565b60408051808201909152818152600060208083018290528154600181018084559280528351805193949360029092027f290decd9548b62a8d60345a988386fc84ba6bc95484008f6362f93160ef3e563019261035e9284929091019061046b565b50602091909101516001909101805460ff19169115159190911790555050565b600080548290811061038c57fe5b60009182526020918290206002918202018054604080516001831615610100026000190190921693909304601f8101859004850282018501909352828152909350918391908301828280156104225780601f106103f757610100808354040283529160200191610422565b820191906000526020600020905b81548152906001019060200180831161040557829003601f168201915b5050506001909301549192505060ff1682565b600160008281548110151561044657fe5b60009182526020909120600290910201600101805460ff191691151591909117905550565b828054600181600116156101000203166002900490600052602060002090601f016020900481019282601f106104ac57805160ff19168380011785556104d9565b828001600101855582156104d9579182015b828111156104d95782518255916020019190600101906104be565b506104e59291506104e9565b5090565b61050391905b808211156104e557600081556001016104ef565b9056fea165627a7a723058204422f3bcda50b7ef579b9e9600bcf1671eb9b0457fc4601a8f577a9e1162354f0029",
  "source": "pragma solidity ^0.5.0;\n\ncontract TodoList {\n    struct Task {\n        string content;\n        bool completed;\n    }\n\n    Task[] public tasks;\n\n    function addTask(string memory _content) public {\n        tasks.push(Task(_content, false));\n    }\n\n    function completeTask(uint _index) public {\n        tasks[_index].completed = true;\n    }\n\n    function getTask(uint _index) public view returns (string memory, bool) {\n        return (tasks[_index].content, tasks[_index].completed);\n    }\n}",
  "sourcePath": "/home/none/Documents/web3/contracts/todolist.sol",
  "compiler": {
    "name": "solc",
    "version": "0.5.0+commit.1d4f565a.Emscripten.clang"
  },
  "schemaVersion": "3.0.1",
  "updatedAt": "2025-02-25T13:34:15.228Z",
  "devdoc": {
    "methods": {}
  },
  "userdoc": {
    "methods": {}
  }
}